{
    "contractName": "InboxContract",
    "abi": [
        {
            "inputs": [
                {
                    "internalType": "string",
                    "name": "initialMessage",
                    "type": "string"
                }
            ],
            "stateMutability": "nonpayable",
            "type": "constructor"
        },
        {
            "inputs": [],
            "name": "message",
            "outputs": [
                {
                    "internalType": "string",
                    "name": "",
                    "type": "string"
                }
            ],
            "stateMutability": "view",
            "type": "function"
        },
        {
            "inputs": [
                {
                    "internalType": "string",
                    "name": "newMessage",
                    "type": "string"
                }
            ],
            "name": "setMessage",
            "outputs": [],
            "stateMutability": "nonpayable",
            "type": "function"
        }
    ],
    "bytecode": "608060405234801561001057600080fd5b506040516104ef3803806104ef8339818101604052602081101561003357600080fd5b810190808051604051939291908464010000000082111561005357600080fd5b90830190602082018581111561006857600080fd5b825164010000000081118282018810171561008257600080fd5b82525081516020918201929091019080838360005b838110156100af578181015183820152602001610097565b50505050905090810190601f1680156100dc5780820380516001836020036101000a031916815260200191505b50604052505081516100f6915060009060208401906100fd565b50506101d1565b82805461010990610196565b90600052602060002090601f01602090048101928261012b5760008555610171565b82601f1061014457805160ff1916838001178555610171565b82800160010185558215610171579182015b82811115610171578251825591602001919060010190610156565b5061017d929150610181565b5090565b5b8082111561017d5760008155600101610182565b600181811c908216806101aa57607f821691505b602082108114156101cb57634e487b7160e01b600052602260045260246000fd5b50919050565b61030f806101e06000396000f3fe608060405234801561001057600080fd5b50600436106100365760003560e01c8063368b87721461003b578063e21f37ce146100e3575b600080fd5b6100e16004803603602081101561005157600080fd5b81019060208101813564010000000081111561006c57600080fd5b82018360208201111561007e57600080fd5b803590602001918460018302840111640100000000831117156100a057600080fd5b91908080601f016020809104026020016040519081016040528093929190818152602001838380828437600092019190915250929550610160945050505050565b005b6100eb610177565b6040805160208082528351818301528351919283929083019185019080838360005b8381101561012557818101518382015260200161010d565b50505050905090810190601f1680156101525780820380516001836020036101000a031916815260200191505b509250505060405180910390f35b8051610173906000906020840190610205565b5050565b600080546101849061029e565b80601f01602080910402602001604051908101604052809291908181526020018280546101b09061029e565b80156101fd5780601f106101d2576101008083540402835291602001916101fd565b820191906000526020600020905b8154815290600101906020018083116101e057829003601f168201915b505050505081565b8280546102119061029e565b90600052602060002090601f0160209004810192826102335760008555610279565b82601f1061024c57805160ff1916838001178555610279565b82800160010185558215610279579182015b8281111561027957825182559160200191906001019061025e565b50610285929150610289565b5090565b5b80821115610285576000815560010161028a565b600181811c908216806102b257607f821691505b602082108114156102d357634e487b7160e01b600052602260045260246000fd5b5091905056fea2646970667358221220b13380b2d2e82aae02a0ceac25beb12dfe5d4ef50b7b29ecb72431a7c588afbf64736f6c63430008090033",
    "sourcePath": "/Users/meme/Git/Inbox/Contracts/Inbox.sol",
    "compiler": {
        "name": "solc",
        "version": "0.8.9+commit.e5eed63a"
    },
    "functionHashes": {
        "message()": "e21f37ce",
        "setMessage(string)": "368b8772"
    },
    "gasEstimates": {
        "creation": {
            "codeDepositCost": "156600",
            "executionCost": "infinite",
            "totalCost": "infinite"
        },
        "external": {
            "message()": "infinite",
            "setMessage(string)": "infinite"
        }
    }
}